{
  "contractName": "NoShow",
  "abi": [
    {
      "constant": true,
      "inputs": [],
      "name": "client",
      "outputs": [
        {
          "name": "",
          "type": "address"
        }
      ],
      "payable": false,
      "stateMutability": "view",
      "type": "function"
    },
    {
      "constant": true,
      "inputs": [
        {
          "name": "",
          "type": "address"
        }
      ],
      "name": "pendingReturns",
      "outputs": [
        {
          "name": "",
          "type": "uint256"
        }
      ],
      "payable": false,
      "stateMutability": "view",
      "type": "function"
    },
    {
      "constant": true,
      "inputs": [],
      "name": "reservationFee",
      "outputs": [
        {
          "name": "",
          "type": "uint256"
        }
      ],
      "payable": false,
      "stateMutability": "view",
      "type": "function"
    },
    {
      "constant": true,
      "inputs": [],
      "name": "owner",
      "outputs": [
        {
          "name": "",
          "type": "address"
        }
      ],
      "payable": false,
      "stateMutability": "view",
      "type": "function"
    },
    {
      "inputs": [],
      "payable": false,
      "stateMutability": "nonpayable",
      "type": "constructor"
    },
    {
      "anonymous": false,
      "inputs": [
        {
          "indexed": false,
          "name": "reserver",
          "type": "address"
        },
        {
          "indexed": false,
          "name": "amount",
          "type": "uint256"
        }
      ],
      "name": "MadeReservation",
      "type": "event"
    },
    {
      "anonymous": false,
      "inputs": [
        {
          "indexed": false,
          "name": "reserver",
          "type": "address"
        },
        {
          "indexed": false,
          "name": "amount",
          "type": "uint256"
        }
      ],
      "name": "BreakReservation",
      "type": "event"
    },
    {
      "anonymous": false,
      "inputs": [
        {
          "indexed": false,
          "name": "reserver",
          "type": "address"
        },
        {
          "indexed": false,
          "name": "amount",
          "type": "uint256"
        }
      ],
      "name": "KeepPromise",
      "type": "event"
    },
    {
      "constant": false,
      "inputs": [],
      "name": "reservation",
      "outputs": [],
      "payable": true,
      "stateMutability": "payable",
      "type": "function"
    },
    {
      "constant": false,
      "inputs": [],
      "name": "withdraw",
      "outputs": [],
      "payable": false,
      "stateMutability": "nonpayable",
      "type": "function"
    },
    {
      "constant": false,
      "inputs": [],
      "name": "clientCome",
      "outputs": [],
      "payable": false,
      "stateMutability": "nonpayable",
      "type": "function"
    }
  ],
  "bytecode": "0x608060405234801561001057600080fd5b5033600160006101000a81548173ffffffffffffffffffffffffffffffffffffffff021916908373ffffffffffffffffffffffffffffffffffffffff1602179055506108bb806100616000396000f300608060405260043610610083576000357c0100000000000000000000000000000000000000000000000000000000900463ffffffff168063109e94cf1461008857806326b387bb146100df5780632a5c4675146101365780632e939793146101405780633ccfd60b1461016b5780637995f713146101825780638da5cb5b14610199575b600080fd5b34801561009457600080fd5b5061009d6101f0565b604051808273ffffffffffffffffffffffffffffffffffffffff1673ffffffffffffffffffffffffffffffffffffffff16815260200191505060405180910390f35b3480156100eb57600080fd5b50610120600480360381019080803573ffffffffffffffffffffffffffffffffffffffff169060200190929190505050610215565b6040518082815260200191505060405180910390f35b61013e61022d565b005b34801561014c57600080fd5b506101556103c8565b6040518082815260200191505060405180910390f35b34801561017757600080fd5b506101806103ce565b005b34801561018e57600080fd5b50610197610662565b005b3480156101a557600080fd5b506101ae610869565b604051808273ffffffffffffffffffffffffffffffffffffffff1673ffffffffffffffffffffffffffffffffffffffff16815260200191505060405180910390f35b6000809054906101000a900473ffffffffffffffffffffffffffffffffffffffff1681565b60036020528060005260406000206000915090505481565b600160009054906101000a900473ffffffffffffffffffffffffffffffffffffffff1673ffffffffffffffffffffffffffffffffffffffff163373ffffffffffffffffffffffffffffffffffffffff161415151561028a57600080fd5b336000806101000a81548173ffffffffffffffffffffffffffffffffffffffff021916908373ffffffffffffffffffffffffffffffffffffffff160217905550346002819055507fbfabc3a5a88de1674e93484b6d9e907494f87c60d9e5def36ccda4d38fcb80196000809054906101000a900473ffffffffffffffffffffffffffffffffffffffff16600254604051808373ffffffffffffffffffffffffffffffffffffffff1673ffffffffffffffffffffffffffffffffffffffff1681526020018281526020019250505060405180910390a1600254600360008060009054906101000a900473ffffffffffffffffffffffffffffffffffffffff1673ffffffffffffffffffffffffffffffffffffffff1673ffffffffffffffffffffffffffffffffffffffff16815260200190815260200160002081905550565b60025481565b6000600160009054906101000a900473ffffffffffffffffffffffffffffffffffffffff1673ffffffffffffffffffffffffffffffffffffffff163373ffffffffffffffffffffffffffffffffffffffff1614151561042c57600080fd5b600360008060009054906101000a900473ffffffffffffffffffffffffffffffffffffffff1673ffffffffffffffffffffffffffffffffffffffff1673ffffffffffffffffffffffffffffffffffffffff16815260200190815260200160002054905060008111156104ff576000600360008060009054906101000a900473ffffffffffffffffffffffffffffffffffffffff1673ffffffffffffffffffffffffffffffffffffffff1673ffffffffffffffffffffffffffffffffffffffff168152602001908152602001600020819055505b7fa4433db9f26dbb9646e2c6f8f8e3af49c3f1d171cb51da35ff2c83f464bb0ef73360028381151561052d57fe5b04604051808373ffffffffffffffffffffffffffffffffffffffff1673ffffffffffffffffffffffffffffffffffffffff1681526020018281526020019250505060405180910390a16000809054906101000a900473ffffffffffffffffffffffffffffffffffffffff1673ffffffffffffffffffffffffffffffffffffffff166108fc6002838115156105bd57fe5b049081150290604051600060405180830381858888f193505050501580156105e9573d6000803e3d6000fd5b50600160009054906101000a900473ffffffffffffffffffffffffffffffffffffffff1673ffffffffffffffffffffffffffffffffffffffff166108fc60028381151561063257fe5b049081150290604051600060405180830381858888f1935050505015801561065e573d6000803e3d6000fd5b5050565b6000600160009054906101000a900473ffffffffffffffffffffffffffffffffffffffff1673ffffffffffffffffffffffffffffffffffffffff163373ffffffffffffffffffffffffffffffffffffffff161415156106c057600080fd5b600360008060009054906101000a900473ffffffffffffffffffffffffffffffffffffffff1673ffffffffffffffffffffffffffffffffffffffff1673ffffffffffffffffffffffffffffffffffffffff1681526020019081526020016000205490506000811115610793576000600360008060009054906101000a900473ffffffffffffffffffffffffffffffffffffffff1673ffffffffffffffffffffffffffffffffffffffff1673ffffffffffffffffffffffffffffffffffffffff168152602001908152602001600020819055505b7fcf463f7b3e11e3ecf2c148b692d03a336621dd4eb1d0f8382b7448f1c7f64ece3382604051808373ffffffffffffffffffffffffffffffffffffffff1673ffffffffffffffffffffffffffffffffffffffff1681526020018281526020019250505060405180910390a16000809054906101000a900473ffffffffffffffffffffffffffffffffffffffff1673ffffffffffffffffffffffffffffffffffffffff166108fc829081150290604051600060405180830381858888f19350505050158015610865573d6000803e3d6000fd5b5050565b600160009054906101000a900473ffffffffffffffffffffffffffffffffffffffff16815600a165627a7a723058206104f3f926c93470091d1882fe7e7a71c001b4553dc5e7a7021232a28f3795ca0029",
  "source": "pragma solidity ^0.4.22;\n\ncontract NoShow {\n    // 예약하는 손님\n    address public client;\n    // 식당 주인\n    address public owner;\n    // 예약금\n    uint public reservationFee;\n    // 노쇼가 아닐 경우 환불\n    mapping(address => uint) public pendingReturns;\n    // 예약 기록을 남김\n    event MadeReservation(address reserver, uint amount);\n    // 지켜지지 않은 예약을 기록\n    event BreakReservation(address reserver, uint amount);\n    // 지켜진 예약을 기록\n    event KeepPromise(address reserver, uint amount);\n    // 함수 호출자를 손님으로 한정하는 modifier 선언\n    modifier onlyClient {\n        require(msg.sender != owner);\n        _;\n    }\n    // 함수 호출자를 식당 주인으로 한정하는 modifier 선언\n    modifier onlyOwner {\n        require(msg.sender == owner);\n        _;\n    }\n    // 계약 생성자\n    constructor() public {\n        owner = msg.sender;\n    }\n    // 예약 기능\n    function reservation() public payable onlyClient {\n        //require(msg.sender != owner);\n        client = msg.sender;\n        reservationFee = msg.value;\n        emit MadeReservation(client, reservationFee);\n        pendingReturns[client] = reservationFee;\n    }\n    // 예약이 지켜지지 않았을 경우 실행하는 함수\n    function withdraw() public onlyOwner {\n        uint amount = pendingReturns[client];\n        if (amount > 0) {\n            pendingReturns[client] = 0;\n        }\n        emit BreakReservation(msg.sender, amount/2);\n        client.transfer(amount/2);\n        owner.transfer(amount/2);\n    }\n    // 예약이 지켜졌을 경우 실행하는 함수\n    function clientCome() public onlyOwner {\n        uint amount = pendingReturns[client];\n        if (amount > 0) {\n            pendingReturns[client] = 0;\n        }\n        emit KeepPromise(msg.sender, amount);\n        client.transfer(amount);\n    }\n}",
  "sourcePath": "/Users/KEUNU/study/block-chain/truffle-tutorial/NoShow/contracts/NoShow.sol",
  "compiler": {
    "name": "solc",
    "version": "0.4.23+commit.124ca40d.Emscripten.clang"
  },
  "schemaVersion": "2.0.0",
  "updatedAt": "2018-06-08T05:55:42.974Z"
}