{
  "contractName": "RestaurantsOwnerRegister",
  "abi": [
    {
      "constant": true,
      "inputs": [],
      "name": "registerFee",
      "outputs": [
        {
          "name": "",
          "type": "uint256"
        }
      ],
      "payable": false,
      "stateMutability": "view",
      "type": "function"
    },
    {
      "constant": true,
      "inputs": [
        {
          "name": "",
          "type": "uint256"
        }
      ],
      "name": "restaurantOwners",
      "outputs": [
        {
          "name": "",
          "type": "address"
        }
      ],
      "payable": false,
      "stateMutability": "view",
      "type": "function"
    },
    {
      "constant": true,
      "inputs": [
        {
          "name": "",
          "type": "address"
        }
      ],
      "name": "restaurantOwnerInfo",
      "outputs": [
        {
          "name": "is_payed",
          "type": "bool"
        },
        {
          "name": "restaurantName",
          "type": "string"
        }
      ],
      "payable": false,
      "stateMutability": "view",
      "type": "function"
    },
    {
      "constant": true,
      "inputs": [],
      "name": "restaurantOwner",
      "outputs": [
        {
          "name": "",
          "type": "address"
        }
      ],
      "payable": false,
      "stateMutability": "view",
      "type": "function"
    },
    {
      "constant": true,
      "inputs": [],
      "name": "contractOwner",
      "outputs": [
        {
          "name": "",
          "type": "address"
        }
      ],
      "payable": false,
      "stateMutability": "view",
      "type": "function"
    },
    {
      "inputs": [],
      "payable": false,
      "stateMutability": "nonpayable",
      "type": "constructor"
    },
    {
      "anonymous": false,
      "inputs": [
        {
          "indexed": false,
          "name": "contractOwner",
          "type": "address"
        },
        {
          "indexed": false,
          "name": "restaurantOwner",
          "type": "address"
        },
        {
          "indexed": false,
          "name": "registerFee",
          "type": "uint256"
        }
      ],
      "name": "MadeRegister",
      "type": "event"
    },
    {
      "constant": true,
      "inputs": [
        {
          "name": "_restaurantOwner",
          "type": "address"
        }
      ],
      "name": "checkRestaurantOwnerExists",
      "outputs": [
        {
          "name": "",
          "type": "bool"
        }
      ],
      "payable": false,
      "stateMutability": "view",
      "type": "function"
    },
    {
      "constant": false,
      "inputs": [
        {
          "name": "_contractOwner",
          "type": "address"
        },
        {
          "name": "_restaurantName",
          "type": "string"
        }
      ],
      "name": "registerRestaurant",
      "outputs": [],
      "payable": true,
      "stateMutability": "payable",
      "type": "function"
    }
  ],
  "bytecode": "0x6080604052600160035534801561001557600080fd5b50336000806101000a81548173ffffffffffffffffffffffffffffffffffffffff021916908373ffffffffffffffffffffffffffffffffffffffff160217905550610929806100656000396000f300608060405260043610610083576000357c0100000000000000000000000000000000000000000000000000000000900463ffffffff16806303f187ea146100885780632f6a27b6146100b357806332855e18146101205780633e5cfa27146101e7578063ade49fcb1461023e578063b9d276f3146102ba578063ce606ee014610315575b600080fd5b34801561009457600080fd5b5061009d61036c565b6040518082815260200191505060405180910390f35b3480156100bf57600080fd5b506100de60048036038101908080359060200190929190505050610372565b604051808273ffffffffffffffffffffffffffffffffffffffff1673ffffffffffffffffffffffffffffffffffffffff16815260200191505060405180910390f35b34801561012c57600080fd5b50610161600480360381019080803573ffffffffffffffffffffffffffffffffffffffff1690602001909291905050506103b0565b604051808315151515815260200180602001828103825283818151815260200191508051906020019080838360005b838110156101ab578082015181840152602081019050610190565b50505050905090810190601f1680156101d85780820380516001836020036101000a031916815260200191505b50935050505060405180910390f35b3480156101f357600080fd5b506101fc610479565b604051808273ffffffffffffffffffffffffffffffffffffffff1673ffffffffffffffffffffffffffffffffffffffff16815260200191505060405180910390f35b6102b8600480360381019080803573ffffffffffffffffffffffffffffffffffffffff169060200190929190803590602001908201803590602001908080601f016020809104026020016040519081016040528093929190818152602001838380828437820191505050505050919291929050505061049f565b005b3480156102c657600080fd5b506102fb600480360381019080803573ffffffffffffffffffffffffffffffffffffffff169060200190929190505050610734565b604051808215151515815260200191505060405180910390f35b34801561032157600080fd5b5061032a610833565b604051808273ffffffffffffffffffffffffffffffffffffffff1673ffffffffffffffffffffffffffffffffffffffff16815260200191505060405180910390f35b60035481565b60028181548110151561038157fe5b906000526020600020016000915054906101000a900473ffffffffffffffffffffffffffffffffffffffff1681565b60046020528060005260406000206000915090508060000160009054906101000a900460ff1690806001018054600181600116156101000203166002900480601f01602080910402602001604051908101604052809291908181526020018280546001816001161561010002031660029004801561046f5780601f106104445761010080835404028352916020019161046f565b820191906000526020600020905b81548152906001019060200180831161045257829003601f168201915b5050505050905082565b600160009054906101000a900473ffffffffffffffffffffffffffffffffffffffff1681565b6000809054906101000a900473ffffffffffffffffffffffffffffffffffffffff1673ffffffffffffffffffffffffffffffffffffffff163373ffffffffffffffffffffffffffffffffffffffff16141515156104fb57600080fd5b8173ffffffffffffffffffffffffffffffffffffffff166000809054906101000a900473ffffffffffffffffffffffffffffffffffffffff1673ffffffffffffffffffffffffffffffffffffffff1614151561055657600080fd5b6001600460003373ffffffffffffffffffffffffffffffffffffffff1673ffffffffffffffffffffffffffffffffffffffff16815260200190815260200160002060000160006101000a81548160ff02191690831515021790555080600460003373ffffffffffffffffffffffffffffffffffffffff1673ffffffffffffffffffffffffffffffffffffffff1681526020019081526020016000206001019080519060200190610607929190610858565b507f3339b8f12785c38e6cb9cb45aff907cd5f74364061425c5b4e55be0c90b819036000809054906101000a900473ffffffffffffffffffffffffffffffffffffffff163334604051808473ffffffffffffffffffffffffffffffffffffffff1673ffffffffffffffffffffffffffffffffffffffff1681526020018373ffffffffffffffffffffffffffffffffffffffff1673ffffffffffffffffffffffffffffffffffffffff168152602001828152602001935050505060405180910390a16000809054906101000a900473ffffffffffffffffffffffffffffffffffffffff1673ffffffffffffffffffffffffffffffffffffffff166108fc349081150290604051600060405180830381858888f1935050505015801561072f573d6000803e3d6000fd5b505050565b6000806000809054906101000a900473ffffffffffffffffffffffffffffffffffffffff1673ffffffffffffffffffffffffffffffffffffffff163373ffffffffffffffffffffffffffffffffffffffff161415151561079357600080fd5b600090505b600280549050811015610828578273ffffffffffffffffffffffffffffffffffffffff166002828154811015156107cb57fe5b9060005260206000200160009054906101000a900473ffffffffffffffffffffffffffffffffffffffff1673ffffffffffffffffffffffffffffffffffffffff16141561081b576001915061082d565b8080600101915050610798565b600091505b50919050565b6000809054906101000a900473ffffffffffffffffffffffffffffffffffffffff1681565b828054600181600116156101000203166002900490600052602060002090601f016020900481019282601f1061089957805160ff19168380011785556108c7565b828001600101855582156108c7579182015b828111156108c65782518255916020019190600101906108ab565b5b5090506108d491906108d8565b5090565b6108fa91905b808211156108f65760008160009055506001016108de565b5090565b905600a165627a7a7230582032b1bab7295b12d3e34504db8806cc374a12c981f29f8f016709dc7f97a9e9280029",
  "source": "pragma solidity ^0.4.22;\n\ncontract RestaurantsOwnerRegister {\n    // 계약 배포자\n    address public contractOwner;\n    // 레스토랑 주인 주소\n    address public restaurantOwner;\n    // 레스토랑 주인들의 주소들\n    address[] public restaurantOwners;\n    // 레스토랑 등록비\n    uint public registerFee = 1;\n    // 레스토랑 주인의 정보(등록비 납부, 레스토랑 이름)\n    struct RestaurantOwner {\n        bool is_payed;\n        string restaurantName;\n    }\n    // 레스토랑 주인의 정보(등록비 납부 유무, 레스토랑 이름)를 레스토랑 주인의 주소에 등록\n    mapping(address => RestaurantOwner) public restaurantOwnerInfo;\n\n    // 등록비 납부 기록\n    event MadeRegister(address contractOwner, address restaurantOwner, uint registerFee);\n\n    // 레스토랑 등록은 계약의 배포자가 아닌 레스토랑 주인만 가능하도록 제한함.\n    modifier onlyRestaurantOwner {\n        require(msg.sender != contractOwner);\n        _;\n    }\n\n    constructor() public {\n        contractOwner = msg.sender;\n    }\n\n    // 이미 등록된 레스토랑 주인인지 검증\n    function checkRestaurantOwnerExists(address _restaurantOwner) public constant onlyRestaurantOwner returns(bool){\n        for(uint256 i = 0; i < restaurantOwners.length; i++){\n            if(restaurantOwners[i] == _restaurantOwner) return true;\n        }\n        return false;\n    }\n\n    // 레스토랑 등록 기능\n    function registerRestaurant(address _contractOwner, string _restaurantName) public payable onlyRestaurantOwner {\n        //require(!checkRestaurantOwnerExists(msg.sender));\n        require(contractOwner == _contractOwner);\n        //require(msg.value == 1);\n        //restaurantOwners.push(msg.sender);\n        restaurantOwnerInfo[msg.sender].is_payed = true;\n        restaurantOwnerInfo[msg.sender].restaurantName = _restaurantName;\n        emit MadeRegister(contractOwner, msg.sender, msg.value);\n        contractOwner.transfer(msg.value);\n    }\n}\n",
  "sourcePath": "/Users/KEUNU/study/block-chain/truffle-tutorial/NoShow/contracts/RestaurantsOwnerRegister.sol",
  "compiler": {
    "name": "solc",
    "version": "0.4.23+commit.124ca40d.Emscripten.clang"
  },
  "schemaVersion": "2.0.0",
  "updatedAt": "2018-07-27T06:59:19.142Z"
}